:0400000080315328D0
:100008007E14803100302E0090180130F5007508FC
:1000180003190F28102851280130F8070030F93D3E
:1000280075307902303003197802031C1C281D280A
:100038004F28FA011A307A02031C2328242825287D
:100048004D280330F4007408F0007A0895318D25A6
:100058008031223E8600023087000103031D3528C7
:10006800362848280330F4007408F0007A089531DF
:100078008D258031203E8600023087007808810275
:1000880041317908813B7F310130F4007408FA0767
:100098001E28F801F9012E0090107E100900803109
:1000A8005528F601F701F801F901FA01A03084009A
:1000B800003085003C3095314B258031203084005C
:1000C80001308500423095314B258031A0308400C5
:1000D80001308500203095314B2580312030840057
:1000E800023085004E3095314B258031A030840098
:1000F80002308500403095314B2580317E1020003C
:10010800803186289631E026803196311A26803152
:1001180097310B27803100302000A000A1009531D5
:10012800B8258031200017156400242C88310D2053
:100138008031200025082100D50020002408210056
:10014800D4000130D2000030D30098285508200090
:10015800A500210054082000A40096310126803112
:10016800003020002502653003192402031CBD2835
:10017800BE28982897316227803118302100D20094
:100188000030D30055082000A500210054082000A5
:10019800A40095317B25803100302000A1009830E3
:1001A800A2009531E825803100302000A300A4008A
:1001B8000030A500A6000030A700A800883149201B
:1001C8008031982855082000A500210054082000F7
:1001D800A4009631012680310030200025021F300E
:1001E80003192402031CF928FA2898281930210039
:1001F800D2000030D30055082000A5002100540883
:100208002000A40095317B25803101302100BA00FF
:100218000030BB00982803302000A3000030A40061
:100228000330A5000030A6000230A7000030A80067
:1002380088314920803102302100D2000030D300BB
:1002480055082000A500210054082000A40095317D
:100258007B2580319828640032309731C727803158
:10026800200024082100B500200023082100B40044
:1002780033309731C7278031200024082100B3008C
:10028800200023082100B20034309731C72780317D
:10029800200024082100B100200023082100B0001C
:1002A80035309731C7278031200024082100AF005E
:1002B800200023082100AE0036309731C72780314F
:1002C800200024082100AD00200023082100AC00F4
:1002D80037309731C7278031200024082100AB0030
:1002E800200023082100AA0033082200E30021008F
:1002F80032082200E2006208E300E201210034082B
:10030800220062042100DA0035082200630421007B
:10031800DB002F082200E30021002E082200E20063
:100328006208E300E2012100300822006204210093
:10033800D8003108220063042100D9002B082200CC
:10034800E30021002A082200E2006208E300E2013B
:1003580021002C08220062042100D6002D0822006A
:1003680063042100D70045082200B7002100440893
:100378002200B600210058082000A00021005908DA
:100388002000A100890D893B8909A200A300013042
:100398008931EA21803120002308B5002208B40001
:1003A8002108B3002008B2003F30B1000030B0008F
:1003B8000030AF000030AE0084314324803120008B
:1003C8003108CF003008CE002F08CD002E08CC0011
:1003D80021004C082000A00021004D082000A100A9
:1003E800890D893B8909A200A30001308931EA21DE
:1003F800803120002308B5002208B4002108B3008A
:100408002008B2003F30B1000030B0000030AF002B
:100418000030AE0084314324803120003108CB0005
:100428003008CA002F08C9002E08C8008D31C82519
:10043800803120004B08DF004A08DE004908DD0053
:100448004808DC008831EA20803120005D0821005E
:10045800C50020005C082100C4004508CD00440800
:10046800CC0047082200B900210046082200B80045
:1004780021005A082000A00021005B082000A100EC
:10048800890D893B8909A200A30001308931EA213D
:10049800803120002308B5002208B4002108B300E9
:1004A8002008B2003F30B1000030B0000030AF008B
:1004B8000030AE0084314324803120003108CF0061
:1004C8003008CE002F08CD002E08CC0021004E08A1
:1004D8002000A00021004F082000A100890D893BC1
:1004E8008909A200A30001308931EA218031200066
:1004F8002308B5002208B4002108B3002008B20080
:100508003F30B1000030B0000030AF000030AE0026
:1005180084314324803120003108CB003008CA00E0
:100528002F08C9002E08C8008D31C8258031200049
:100538004B08DF004A08DE004908DD004808DC00F7
:100548008831EA20803120005D082100C7002000A2
:100558005C082100C6004708CF004608CE004908BD
:100568002200BB00210048082200BA0021005608DA
:100578002000A000210057082000A100890D893B18
:100588008909A200A30001308931EA2180312000C5
:100598002308B5002208B4002108B3002008B200DF
:1005A8003F30B1000030B0000030AF000030AE0086
:1005B80084314324803120003108CF003008CE0038
:1005C8002F08CD002E08CC0021004A082000A000EA
:1005D80021004B082000A100890D893B8909A20050
:1005E800A30001308931EA21803120002308B500B9
:1005F8002208B4002108B3002008B2003F30B1003F
:100608000030B0000030AF000030AE008431432429
:10061800803120003108CB003008CA002F08C900FB
:100628002E08C8008D31C825803120004B08DF0016
:100638004A08DE004908DD004808DC008831EA2065
:10064800803120005D082100C90020005C082100DD
:10065800C8004908CB004808CA0045303C063D049C
:10066800031D372B382B3D2B0330D2000030D3002D
:1006780098281630D2000030D30098280130BC07E3
:100688000030BD3D32303C063D04031D4C2B4D2B44
:10069800672B4F08B9004E08B8004D08B7004C0842
:1006A800B60013302000A1009830A2009531E8254B
:1006B800803103302100D2000030D3004530BC0027
:1006C8000030BD0098280230D2000030D3009828AE
:1006D800380846022000A00021003908473B2000C6
:1006E800A100A201A11BA2032208A30001308931A5
:1006F800EA21803120002308B1002208B000210837
:10070800AF002008AE0096318E26803120003108D7
:10071800B9003008B8002F08B7002E08B6004130DD
:10072800BD002030BC000030BB000030BA00893169
:100738005F2180310318A12BA22BD92B2100360869
:1007480044022000A00021003708453B2000A100FA
:10075800A201A11BA2032208A30001308931EA21CA
:10076800803120002308B1002208B0002108AF0022
:100778002008AE0096318E26803120003108B9005D
:100788003008B8002F08B7002E08B6004130BD0069
:100798002030BC000030BB000030BA0089315F2136
:1007A8008031031CD82BD92BF92B39302000A1001C
:1007B8009830A2009531E825803139302000A10019
:1007C8009830A2009531E825803139302000A10009
:1007D8009830A2009531E825803139302000A100F9
:1007E8009830A2009531E82580312E302100DF00B5
:1007F8009830E0004708E2004608E10044309731AD
:100808003627803144302000A1000130A200953104
:10081800E825803122302100DF009830E0004508CB
:10082800E2004408E10044309731362780314430F3
:100838002000A1000130A2009531E82580311F2950
:1008480021005308003A03192A2C98285208003A24
:1008580003199A28013A0319AA28033A03192F29D8
:10086800013A03196C2B153A0319422B0E3A031956
:10087800E628013A03190F299828803153282000C7
:1008880031088039B6003608BB003135B600360865
:10089800C100B01F502C512C522C4114410803198F
:1008A800562C572C662C410A031D5B2C5C2C642C9F
:1008B8000030B1000030B0000030AF000030AE00B2
:1008C800B0176E2C0030B1000030B0000030AF001F
:1008D8000030AE0035088039B6003608BB0635351D
:1008E800B6003608BC00B41F7A2C7B2C7C2C3C1438
:1008F8003C080319802C812C902C3C0A031D852C64
:10090800862C8E2C0030B5000030B4000030B300C7
:100918000030B200B417982C0030B5000030B40095
:100928000030B3000030B2003C0803199C2C9D2C09
:10093800A22C4108031DA12CA22CAB2C0030B10025
:100948000030B0000030AF000030AE00992E2E0805
:10095800B6003608A000340896316A268431200093
:100968002108C7002008C6004608B600B701B8012C
:10097800B9013908C0003808BF003708BE0036087A
:10098800BD004708B600B701B801B9013908C5006C
:100998003808C4003708C3003608C2002F08B6005C
:1009A8003608A000330896316A26843120002108D1
:1009B800C7002008C6004608B600B701B801B9014B
:1009C8003608BD073708BE3D3808BF3D3908C03D69
:1009D8004708B600B701B801B9013608C207370899
:1009E800C33D3808C43D3908C53D3008B60036084F
:1009F800A000320896316A26843120002108C700F9
:100A08002008C6004608B600B701B801B901360883
:100A1800BD073708BE3D3808BF3D3908C03D470807
:100A2800B600B701B801B9013608C2073708C33D97
:100A38003808C43D3908C53D0830BD35BE0DBF0D69
:100A4800C00D890B212D2F08B6003608A0003208EA
:100A580096316A26843120002108C7002008C60084
:100A68004608BD074708BE3D0030BF3DC03D2E08C3
:100A7800B6003608A000330896316A268431200073
:100A88002108C7002008C6004608BD074708BE3D24
:100A98000030BF3DC03D0830BD35BE0DBF0DC00D97
:100AA800890B502D2E08B6003608A0003208963162
:100AB8006A26843120002108C7002008C60046089D
:100AC800BD074708BE3D0030BF3DC03D2F08B600FA
:100AD8003608A000340896316A268431200021089F
:100AE800C7002008C6004608C2074708C33D0030B3
:100AF800C43DC53D3008B6003608A000330896311D
:100B08006A26843120002108C7002008C60046084C
:100B1800C2074708C33D0030C43DC53D3008B60094
:100B28003608A000340896316A268431200021084E
:100B3800C7002008C6004608B6004708B700B80135
:100B4800B9010830B635B70DB80DB90D890BA62D0A
:100B58003608C2073708C33D3808C43D3908C53DC3
:100B68003D08B6003E08B7003F08B8004008B90085
:100B78001830B936B80CB70CB60C890BBD2D360831
:100B8800C2073708C33D3808C43D3908C53D083099
:100B9800BD35BE0DBF0DC00D890BCC2D41083C07DE
:100BA800B600B701B70D3608823EC600FF30373DA4
:100BB800C700F52D0130C235C30DC40DC50D890B15
:100BC800DF2DC01FE82DE92DEA2D42140130BD3577
:100BD800BE0DBF0DC00D890BEB2DFF30C607FF30D2
:100BE800C73DC41FF82DF92DDE2DBC01C01FFD2DFA
:100BF800FE2D1A2EFF303D05B600FF303E05B7002A
:100C0800FF303F05B8007F304005B9003908380487
:100C1800370436040319112E122E152EBC01BC0AF6
:100C28001A2E421C182E192E1A2E122E3C080319A1
:100C38001E2E1F2E472E0130C2070030C33D003044
:100C4800C43D0030C53D451C2A2E2B2E472E420898
:100C5800B6004308B7004408B8004508B900013099
:100C6800BA00B937B80CB70CB60CBA0B352E390820
:100C7800C5003808C4003708C3003608C200013070
:100C8800C6070030C73D4708803AB60080303602B4
:100C9800031D502EFF304602031C532E542E5E2E89
:100CA8007F302000C5008030C4000030C300003011
:100CB800C2008D2E20004708803AB60080303602E8
:100CC800031D682E0130460203186B2E6C2E772EFA
:100CD80000302000C5000030C4000030C3000030E0
:100CE800C200BB018D2E20004608B6003608C100A0
:100CF800FF30C205FF30C3057F30C4050030C5058D
:100D0800411C872E882E892EC4174136B600360816
:100D1800C5003B08B6003608C5044508B1004408BC
:100D2800B0004308AF004208AE0008002000B2013E
:100D38002030860000308700473FB000B01FA52E46
:100D4800A62EC82E2000A009A109A209A309A4095A
:100D5800A509A609A709A00A031DC52EA10A031DF6
:100D6800C52EA20A031DC52EA30A031DC52EA40A5B
:100D7800031DC52EA50A031DC52EA60A031DC52ED3
:100D8800A70A2000B201B20A283086000030870086
:100D9800473F2000B000B01FD22ED32EF72E2000E0
:100DA800A809A909AA09AB09AC09AD09AE09AF0997
:100DB800A80A031DF22EA90A031DF22EAA0A031D72
:100DC800F22EAB0A031DF22EAC0A031DF22EAD0A59
:100DD800031DF22EAE0A031DF22EAF0A01302000C9
:100DE800B0003008B2063330860000308700083083
:100DF8002000B00000301E00B00BFF2E2008210498
:100E080022042304240425042604270403190D2F8F
:100E18000E2F6A2FB101B10A1D2FA035A10DA20D09
:100E2800A30DA40DA50DA60DA70D0130B000300827
:100E3800B107A71F202F212F112FB335B40DB50DE2
:100E4800B60DB70DB80DB90DBA0D27082F02031D41
:100E5800472F26082E02031D472F25082D02031DA4
:100E6800472F24082C02031D472F23082B02031D9C
:100E7800472F22082A02031D472F21082902031D94
:100E8800472F20082802031C4A2F4B2F5C2F2008CD
:100E9800A8022108A93B2208AA3B2308AB3B240847
:100EA800AC3B2508AD3B2608AE3B2708AF3B3314C7
:100EB800A736A60CA50CA40CA30CA20CA10CA00C84
:100EC8000130B102031D692F6A2F212F320803193F
:100ED8006E2F6F2F8D2FB309B409B509B609B7095D
:100EE800B809B909BA09B30A031D8D2FB40A031D3D
:100EF8008D2FB50A031D8D2FB60A031D8D2FB70A36
:100F0800031D8D2FB80A031D8D2FB90A031D8D2FC0
:100F1800BA0A20003308A0003408A1003508A2004E
:100F28003608A3003708A4003808A5003908A60029
:100F38003A08A70008002000B800761CA42FA52FA7
:100F4800AD2F3808B3003308A80030089631B7260B
:100F580087312000B21BB12FB22FB72F3208B7004C
:100F68003108B600B92FB601B701B401B501CD2FCC
:100F780020302000A0000030A1003808B30033085A
:100F8800A20088319520873101302000B407003055
:100F9800B53D3508803AB3003708803A3302031D5F
:100FA800D72F36083402031CDA2FDB2FBC2F761814
:100FB800DE2FDF2FE82F20003808B3003308A80001
:100FC80030089631B726873120003008963133260D
:100FD8008731200036082007B0003708213DB100CE
:100FE8000800230091161116111AFB2FFC2FF82F59
:060FF80091120800080040
:101002002000A200220823008C0095315F25883140
:101012009531CF25883108002000A8012028013011
:101022002000A6002608A8071A302806031D1A2841
:101032001B282028FF30A400FF30A50048280330D9
:10104200A6002608A00028089531A2258831223E54
:101052008600023087000103031930283128102846
:1010620003302000A6002608A00028089531A225FA
:101072008831223E8600023087008101810A2000E9
:101082002808A600A7012608A4002708A500080032
:101092009531512588313A3088310120883100005C
:1010A20095315F2588311E3088310120883100005A
:1010B200200023088831012088310000953158250D
:1010C20088319531512588313A3088310120883173
:1010D200000095315F2588311F3088310120883129
:1010E2000000200025088831012088310000953158
:1010F200582588319531512588313A30883101207F
:101102008831000095315F258831203088310120F7
:101112008831000020002708883101208831000032
:1011220095315825883108002000220803199A2891
:101132009B28A0282208031D9F28A028A528200854
:101142008731FE278831E9282208083E8600870178
:10115200160001040319AE28AF28CD282208083E44
:1011620086008701403FA300413FA4002208023EBF
:1011720086008701403FA500413FA6002608803A2D
:10118200A7002408803A2702031DC9282308250244
:101192000318CC28CD28E92820002008A300220823
:1011A200860087012208023E8400850100080107AB
:1011B200A400240886000130870023088100220849
:1011C200023E860087010130810741310318810AFE
:1011D2000800031020005E0D5F0DE0006008E600CD
:1011E2006608031DF528F628FF280030DF000030CE
:1011F200DE000030DD000030DC005E295C08E0002B
:101202005D08E1005E08E2005F08E3001F30E3369C
:10121200E20CE10CE00C890B08296008E400640888
:10122200E500DE17FF30DC05FF30DD05FF30DE05AF
:101232000030DF059630E602E61F202921293929F0
:101242006608803A973E0318272928292929F62873
:101252000130DF36DE0CDD0CDC0C890B2A29013073
:10126200E0006008E607031D3729382929294E299D
:1012720020306602031C3E293F294929F628013005
:10128200DC35DD0DDE0DDF0D890B41290130E60273
:101292006608031D4D294E29402965080319522964
:1012A20053295E29DC09DD09DE09DF09DC0A03199D
:1012B200DD0A0319DE0A0319DF0A080000302000E4
:1012C2003605BE0000303705BF0080303805C0004B
:1012D2007F303905C100410840043F043E04031D2C
:1012E200732974297C290030B9000030B80000301D
:1012F200B7000030B60000303A05BE0000303B05B2
:10130200BF0080303C05C0007F303D05C100410870
:1013120040043F043E04031D8F2990299829003080
:10132200BD000030BC000030BB000030BA00B91F65
:101332009B299C29B4290030BE000030BF00003038
:10134200C0008030C1003608BE023708BF3B3808F3
:10135200C03B3908C13B4108B9004008B8003F080A
:10136200B7003E08B600BD1FB729B829D029003002
:10137200BE000030BF000030C0008030C1003A081B
:10138200BE023B08BF3B3C08C03B3D08C13B410895
:10139200BD004008BC003F08BB003E08BA008030D8
:1013A200B9068030BD063D083902031DE2293C081A
:1013B2003802031DE2293B083702031DE2293A08DD
:1013C20036020318E529E629E8290310E92903145E
:1013D20008002000A80028080319F029F129052A8D
:1013E200A31FF429F529052A2009AA002109AB0027
:1013F2002209AC002309AD00AA0A0319AB0A03199A
:10140200AC0A0319AD0A0D2A2308AD002208AC006C
:101412002108AB002008AA0023082204210420048A
:10142200031D142A152A1E2A0030A3000030A20030
:101432000030A1000030A000962A9630A4002408B3
:10144200A9002E2A0130A4002408A9070130AD36D4
:10145200AC0CAB0CAA0C890B282AFE302D05031DFF
:10146200332A342A232A482A0130A4002408A9074F
:101472000130AA070030AB3D0030AC3D0030AD3D3D
:101482000130AD36AC0CAB0CAA0C890B422AFF30F2
:101492002D05031D4D2A4E2A352A582A0130A9024C
:1014A2000130AA35AB0DAC0DAD0D890B522AAC1B28
:1014B2005B2A5C2A622A023029020318612A622A04
:1014C2004F2A2918652A662A6E2AFF30AA05FF309C
:1014D200AB057F30AC05FF30AD050310A90C290820
:1014E200A400A501A601A7011830A435A50DA60DDB
:1014F200A70D890B762A2408AA042508AB0426081E
:10150200AC042708AD0428080319882A892A8E2AE0
:10151200A31F8C2A8D2A8E2AAD172D08A3002C0812
:10152200A2002B08A1002A08A00008002000E80061
:10153200590886008701403FDB00413FDC005B0821
:1015420084005C0885001200253A031DA92AAA2AF4
:101552004E2B59088600870101308107413103185B
:10156200810A2100A201A301F601F701FF30A400C4
:10157200FF30A5002000590886008701403FDB00AC
:10158200413FDC005B0884005C0885001200643A7D
:101592000319CC2ACD2ADE2A590886008701403F4A
:1015A200DB00413FDC005B0884005C088500120020
:1015B200693A031DDD2ADE2A192B590886008701A4
:1015C2000130810741310318810A5A0886008701D8
:1015D20001088400850102308107003FDB00013FE2
:1015E200DC005B08E0005C08E100890D893B8909A9
:1015F200E200E300E400E500E600E7006008BB006B
:101602006108BC006208BD006308BE006408BF0038
:101612006508C0006608C1006708C20068088C310E
:101622005F248A3120003C08DA003B08D900712B84
:10163200590886008701403FDB00413FDC005B0820
:1016420084005C0885001200253A031D292B2A2BF1
:10165200432B590886008701013081074131031865
:10166200810A2530A0000030A1006808DB005B0879
:10167200A200883195208A3101302000D900003043
:10168200DA00712B59088600870101308107413148
:101692000318810AD901DA01712B590886008701E2
:1016A200403FDB00413FDC005B0884005C088500B2
:1016B2000008DD00DE015D08A0005E08A1006808E8
:1016C200DF005F08A200883195208A312000590886
:1016D200860087010130810741310318810A3D2BC1
:1016E20008002000B2012830860000308700473F02
:1016F200B000B01F7D2B7E2BA02B2000A809A909CA
:10170200AA09AB09AC09AD09AE09AF09A80A031DC4
:101712009D2BA90A031D9D2BAA0A031D9D2BAB0A13
:10172200031D9D2BAC0A031D9D2BAD0A031D9D2B92
:10173200AE0A031D9D2BAF0A2000B201B20A20306F
:10174200860000308700473F2000B000B01FAA2B60
:10175200AB2BCA2B2000A009A109A209A309A40945
:10176200A509A609A709A00A031DCA2BA10A031DE0
:10177200CA2BA20A031DCA2BA30A031DCA2BA40A41
:10178200031DCA2BA50A031DCA2BA60A031DCA2BB9
:10179200A70A20002008210422042304240425048B
:1017A200260427040319D62BD72B2A2CB101B10A00
:1017B200E62BA035A10DA20DA30DA40DA50DA60D1E
:1017C200A70D0130B0003008B107A71FE92BEA2BA3
:1017D200DA2B27082F02031D082C26082E02031DD0
:1017E200082C25082D02031D082C24082C02031D99
:1017F200082C23082B02031D082C22082A02031D91
:10180200082C21082902031D082C20082802031C89
:101812000B2C0C2C1C2C2008A8022108A93B220806
:10182200AA3B2308AB3B2408AC3B2508AD3B26086A
:10183200AE3B2708AF3BA736A60CA50CA40CA30C05
:10184200A20CA10CA00C0130B102031D292C2A2CE0
:10185200EA2B320803192E2C2F2C4D2CA809A9098A
:10186200AA09AB09AC09AD09AE09AF09A80A031D63
:101872004D2CA90A031D4D2CAA0A031D4D2CAB0A9F
:10188200031D4D2CAC0A031D4D2CAD0A031D4D2C1E
:10189200AE0A031D4D2CAF0A20002808A00029081B
:1018A200A1002A08A2002B08A3002C08A4002D08DE
:1018B200A5002E08A6002F08A70008002000C600D9
:1018C2003B08CF003C08D0003D08D1003E08D200C2
:1018D2003F08D3004008D4004108D5004208D60092
:1018E2004F30860000308700473FC300C31B7A2C6D
:1018F2007C2C01307D2C00302000C400C50144083E
:10190200CD004508CE004D084E040319892C8A2CBF
:10191200A82CCF09D009D109D209D309D409D509F4
:10192200D609CF0A031DA82CD00A031DA82CD10A60
:10193200031DA82CD20A031DA82CD30A031DA82C10
:10194200D40A031DA82CD50A031DA82CD60A2100EF
:10195200A51BAC2CAD2CB12CFD30F605FF30F705E4
:101962002508803A2000C30080304302031DBC2CAE
:101972000130210024020318BF2CC02CC62C0130D8
:101982002000C9000030CA00CE2C2100250820000A
:10199200CA00210024082000C900210023082000D9
:1019A200CC00210022082000CB004D084E04031D6C
:1019B200DB2CDC2CE02C761DDF2CE02CE42CFF3021
:1019C200CB07FF30CC3D1F30D7000030D8002300BA
:1019D200BF01542DFF302000D707FF30D83D0A3019
:1019E200A000A101A201A301A401A501A601A701D2
:1019F2004F08A8005008A9005108AA005208AB00DD
:101A02005308AC005408AD005508AE005608AF00AC
:101A12008B3172238C3120002108B4002008B300DE
:101A220096314E268C3120003308303EC3005708D1
:101A3200A03E86000130870043088100FF30C907BD
:101A4200FF30CA3DFF30CB07FF30CC3D0A30A0004B
:101A5200A101A201A301A401A501A601A7014F08AA
:101A6200A8005008A9005108AA005208AB00530868
:101A7200AC005408AD005508AE005608AF008631E0
:101A82009A268C3120002008CF002108D00022089D
:101A9200D1002308D2002408D3002508D400260848
:101AA200D5002708D60020005808803AC3008030AD
:101AB2004302031D5E2D01305702031C612D622D6E
:101AC2008E2D20004F085004510452045304540434
:101AD20055045604031D6E2D6F2DEB2C4A08803AD7
:101AE200C30080304302031D782D013049020318E0
:101AF2007B2D7C2DEB2C20004C08803AC3008030DB
:101B02004302031D862D01304B02031C892D8A2DB1
:101B12008E2DF6188D2D8E2DEB2C20004D084E04A7
:101B2200031D942D952D992D761D982D992DB52D4A
:101B3200FF30D707FF30D83D4D084E04031DA22DBC
:101B4200A32DA82D2B30C7000030C800AC2D2D309E
:101B5200C7000030C8004708C3005708A03E8600EF
:101B620001308700430881005708A03EC3004308A4
:101B7200B0004C08B2004B08B100460887319F27DD
:101B82008C3120003108BC003008BB000800200066
:101B92004B088039D0005008D8004B35D00050088F
:101BA200DA00CA1FD52DD62DD72D5A145A0803197B
:101BB200DB2DDC2DEC2D5A0A031DE02DE12DE92D44
:101BC2000030CB000030CA000030C9000030C8002D
:101BD200CA17CB01F42D0030CB000030CA00003010
:101BE200C9000030C8004F088039D0005008D90021
:101BF200590858060319FE2DFF2D002E58174F3590
:101C0200D0005008D900CE1F072E082E092E5914D5
:101C1200590803190D2E0E2E1E2E590A031D122EBF
:101C2200132E1B2E0030CF000030CE000030CD002E
:101C32000030CC00CE17CF01262E0030CF0000306E
:101C4200CE000030CD000030CC005A0859020318F3
:101C52002B2E2C2E702E581F2F2E302E342E8030ED
:101C6200D0005008D8065A08D0005008DB005908A6
:101C7200D0005008DA005B08D0005008D9004808AC
:101C8200D0005008DB004C08D0005008C8005B08A8
:101C9200D0005008CC004908D0005008DB004D08A5
:101CA200D0005008C9005B08D0005008CD004A0897
:101CB200D0005008DB004E08D0005008CA005B0874
:101CC200D0005008CE004B08D0005008DB004F086F
:101CD200D0005008CB005B08D0005008CF00DB01D9
:101CE2005908D000D1015108D3005A085002D2003D
:101CF200031CD3035308803AD40080305402031DDE
:101D0200842E1A305202031C872E882EC02E2000E9
:101D12004B084A0449044804031D902E922E0130B8
:101D2200932E0030D0005008DB000030CB00003092
:101D3200CA000030C9000030C8005908D00050085D
:101D4200DA00C72E5B1CA62EA72EAD2E5B360138FD
:101D5200D0005008DB00AF2E0310DB0C481CB22E63
:101D6200B32EB42EDB170130D000CB37CA0CC90C0E
:101D7200C80CD00BB62E0130D0005008DA07200074
:101D820059085A02031CC62EC72EA32E581BCA2E50
:101D9200CB2E032F5A08031DCF2ED02ED92E003062
:101DA200CB000030CA000030C9000030C800FF2F4D
:101DB2004C08C8074D08C93D4E08CA3D4F08CB3DE7
:101DC2004B1CE42EE52E8F2F5B1CE82EE92EEF2E06
:101DD2005B360138D0005008DB00F12E0310DB0C1B
:101DE200481CF42EF52EF62EDB170130D000CB372F
:101DF200CA0CC90CC80CD00BF82E0130D000500808
:101E0200DA078F2F4B08803AD0004F08803A5002F1
:101E1200031D152F4E084A02031D152F4D084902B6
:101E2200031D152F4C0848020318182F192F512F84
:101E3200FF30D000FF30D100FF30D200FF30D3009E
:101E420048084C02D40049084D3BD5004A084E3B95
:101E5200D6004B084F3BD7005408D0075508D13D58
:101E62005608D23D5708D33D5308CB005208CA004A
:101E72005108C9005008C8008030D0005008D80668
:101E8200DB09DB0A5B08031D472F482F592F01305E
:101E9200C8070030C93D0030CA3D0030CB3D592F44
:101EA2004C08C8024D08C93B4E08CA3B4F08CB3B01
:101EB2004B084A0449044804031D602F612F8B2FED
:101EC2005B08031D652F662F8B2F0030CB0000307F
:101ED200CA000030C9000030C800FF2F0130C835E9
:101EE200C90DCA0DCB0D890B702FDB1F792F7A2FED
:101EF2007B2F48145B1C7E2F7F2F822F0314DB0D58
:101F0200842F0310DB0D5A080319882F892F8B2F7A
:101F12000130DA02CA1F8E2F8F2F6F2FD901DB1FDC
:101F2200932F942FA22F5B087F390319992F9A2F91
:101F32009D2FD901D90AA22F481CA02FA12FA22F71
:101F42009A2F59080319A62FA72FD42F0130C8079B
:101F52000030C93D0030CA3D0030CB3D4B1CB22F92
:101F6200B32FD42F4808D0004908D1004A08D20024
:101F72004B08D3000130D400D337D20CD10CD00C93
:101F8200D40BBD2F5308CB005208CA005108C90018
:101F92005008C8005A0A0319CF2FD02FD42F01306E
:101FA200D0005008DA075A0A0319D82FD92FDE2F8A
:101FB2005A08031DDD2FDE2FEC2F0030CB0000303E
:101FC200CA000030C9000030C8005A08031DEA2FB9
:101FD200EB2FEC2FD8015A1CEF2FF02FF22FCA173C
:101FE200F62F7F30D0005008CA055A36D00050086C
:0E1FF200CB00D81FFD2FFE2FFF2FCB170800AE
:102A9600640080010131890B4C2D00342300111490
:102AA6001118562D572D532D0800230011151119F5
:102AB6005D2D5E2D5A2D08002E000F1C632D642DF2
:102AC6005F2D0F1008002300911491186B2D6C2DAB
:102AD600682D08002000A000712D640022009E1CB5
:102AE600752D762D702D2000200822009A000800F2
:102AF60003302000A6002608A00024089531A22550
:102B06009531203E8600023087007808C03F79085C
:102B1600C13F0800F300F201731C922D932D972DEF
:102B26007008F1007108F2070310F00D0310F30CA2
:102B36007308031D9F2DA02D8F2D720808002000FD
:102B4600A300A201231CA82DA92DAD2D2008A100AC
:102B56002108A2070310A00D0310A30C2308031DD0
:102B6600B52DB62DA52D220808002200B401B50109
:102B76002100A601A701A801A9012E0099168F120E
:102B860022001D1624309E0008309F0090309D00C4
:102B96000C309B009C01080002302000A000003091
:102BA600A100E22DFF302000A007FF30A13D200844
:102BB6002104031DDF2DE02DE22D6400E72D230007
:102BC600111BE62DE72DD52D0800F62D21088400D2
:102BD60022088500000895316D25953101302000C9
:102BE600A1070030A23D20002108840022088500AC
:102BF6001200031DFF2D002EE92D08007908200084
:102C0600A8007808A7000330A6002608A00024081C
:102C16009531A2259631203E860002308700403F3E
:102C260020002702A400413F283BA500080062308F
:102C360031008D008F0191010230930092012830FE
:102C46002300900080308F001030910092011330E5
:102C56008D005830200093002E000F101910080028
:102C66002000A4002408A2002208A3003E2E013062
:102C7600A2002208A4072408860001308700010864
:102C8600031D462E472E3A2E23082402A000A1013A
:102C9600A01BA103080020003408803AB50080304C
:102CA6003502031D582E0130330203185B2E5C2EAD
:102CB600692E20003309B5003409B600B50A031998
:102CC600B60A3508B3003608B400692E080020009D
:102CD600A800A401A5012008A200A3012208A600BD
:102CE6002308A700281C782E792E7D2E2608A407F7
:102CF6002708A53D0130A635A70D890B7E2E0310AA
:102D0600A80C2808031D882E892E752E2508A100DB
:102D16002408A0000800220023082000B500220095
:102D260022082000B400220021082000B30022005F
:102D360020082000B2003108B5003008B4002F0882
:102D4600B3002E08B200FF30B205FF30B305FF30E6
:102D5600B4057F30B5053508B1003408B000330836
:102D6600AF003208AE0008002000AF00AD01AE0192
:102D7600CF2E2C08A900AA012908A0002A08A10024
:102D86002808AB002B08A200883195209631013027
:102D96002000AD070030AE3D2D082F07A9002908F9
:102DA6008600013087000108AA002A08AC002C081A
:102DB600031DDE2EDF2EBC2E0800F0302000910011
:102DC60030309200FE3093003E00B801C301CE01C0
:102DD600BA01C501D00155303D008F00AA308F00E1
:102DE6008B130F101330C6001430C50015303E008B
:102DF600A3001430A4001030A50016303D00CB000F
:102E060055308F00AA308F000F148B170B17080050
:102E1600FA011A307A02031C112F122F132F272FB3
:102E260003302000A4002408A0007A089531A225CA
:102E36009731223E86000230870081010130200052
:102E4600A4002408FA070C2FF801F9010130250027
:102E56009000E8308D008C012E0090109A1480307E
:102E660025008E0008002100E400E1302000EE007D
:102E76006E082100E30064082000EE006E082100C1
:102E8600E500E701E801ED01EE0160082000EA0037
:102E960021005F082000E900E330EE006E08EB0039
:102EA600E5309731932797312100670864072000A2
:102EB600EE006E088600013087008101080095311A
:102EC600512597313A3088310120973100009531EC
:102ED6005F259731313088310120973100003B3032
:102EE6008831012097310000953158259731953169
:102EF600512597313A3088310120973100009531BC
:102F06005F2597312D308831012097310000083038
:102F160088310120973100009531582597310800F6
:102F26002100DC0020006A082100DE00200069087C
:102F36002100DD00A001A101B62FDD302000EC004C
:102F46006C08D9006B08ED006D08DA0021005C08FA
:102F56008A3197229731200059082100A0072000C6
:102F66005A082100A13D5D0884005E088500120014
:102F7600031DBE2FBF2FA02F21082000EA0021002D
:102F860020082000E90008002000A90095315125FD
:102F960097313A3088310120973195315F25973145
:102FA600200029088831012097319531662597310F
:102FB6003B3088310120973195315F2597312300C9
:102FC6009115200029088831012097318731F5278E
:102FD600973123000C082000A500A6012508A700AC
:102FE6002608A80095315825973123009111200015
:102FF6002808A4002708A300080049346E34693461
:103006006334693461346C34693474347A346134C9
:103016006E3474342E342E342E342E340A34003466
:1030260049346E3469346334693461346C346934D8
:1030360074347A346134743421340A3400344534B7
:1030460069347834203459343A342034253464349D
:1030560020340A3400344534693478342034583402
:103066003A342034253464340A3400344F3442343C
:0A3076004534523454340A34003457
:020000040001F9
:0A000E00EC3FFF3F9F3FFF3FFF3F25
:00000001FF
